{
  "contractName": "Perper",
  "abi": [
    {
      "constant": true,
      "inputs": [],
      "name": "totalSuply",
      "outputs": [
        {
          "name": "",
          "type": "uint256"
        }
      ],
      "payable": false,
      "stateMutability": "view",
      "type": "function",
      "signature": "0xa2a96799"
    },
    {
      "inputs": [],
      "payable": false,
      "stateMutability": "nonpayable",
      "type": "constructor",
      "signature": "constructor"
    }
  ],
  "bytecode": "0x608060405234801561001057600080fd5b50620f4240600081905550609e806100296000396000f3fe608060405260043610603f576000357c0100000000000000000000000000000000000000000000000000000000900463ffffffff168063a2a96799146044575b600080fd5b348015604f57600080fd5b506056606c565b6040518082815260200191505060405180910390f35b6000548156fea165627a7a723058203517b3fc114d57b19e69068bf22ba9f4f023c6fd9dbe24d1db962f59dc0e05b20029",
  "source": "// SPDX-License-Identifier: MIT\npragma solidity >=0.4.22 <0.9.0;\n\ncontract Perper {\n\n  uint256 public totalSuply;\n  \n  constructor() public {\n    totalSuply = 1000000;\n}\n \n}\n",
  "sourcePath": "C:/Users/lukar/OneDrive/Desktop/PERPER/contracts/Perper.sol",
  "compiler": {
    "name": "solc",
    "version": "0.5.0+commit.1d4f565a.Emscripten.clang"
  },
  "schemaVersion": "3.0.1",
  "updatedAt": "2025-07-19T13:27:56.056Z",
  "devdoc": {
    "methods": {}
  },
  "userdoc": {
    "methods": {}
  }
}